{
  "contractName": "SpaceToken",
  "abi": [
    {
      "inputs": [],
      "stateMutability": "nonpayable",
      "type": "constructor"
    },
    {
      "anonymous": false,
      "inputs": [
        {
          "indexed": true,
          "internalType": "address",
          "name": "owner",
          "type": "address"
        },
        {
          "indexed": true,
          "internalType": "address",
          "name": "approved",
          "type": "address"
        },
        {
          "indexed": true,
          "internalType": "uint256",
          "name": "tokenId",
          "type": "uint256"
        }
      ],
      "name": "Approval",
      "type": "event"
    },
    {
      "anonymous": false,
      "inputs": [
        {
          "indexed": true,
          "internalType": "address",
          "name": "owner",
          "type": "address"
        },
        {
          "indexed": true,
          "internalType": "address",
          "name": "operator",
          "type": "address"
        },
        {
          "indexed": false,
          "internalType": "bool",
          "name": "approved",
          "type": "bool"
        }
      ],
      "name": "ApprovalForAll",
      "type": "event"
    },
    {
      "anonymous": false,
      "inputs": [
        {
          "indexed": false,
          "internalType": "address",
          "name": "owner",
          "type": "address"
        },
        {
          "indexed": false,
          "internalType": "string",
          "name": "url",
          "type": "string"
        }
      ],
      "name": "MintToken",
      "type": "event"
    },
    {
      "anonymous": false,
      "inputs": [
        {
          "indexed": true,
          "internalType": "address",
          "name": "from",
          "type": "address"
        },
        {
          "indexed": true,
          "internalType": "address",
          "name": "to",
          "type": "address"
        },
        {
          "indexed": true,
          "internalType": "uint256",
          "name": "tokenId",
          "type": "uint256"
        }
      ],
      "name": "Transfer",
      "type": "event"
    },
    {
      "anonymous": false,
      "inputs": [
        {
          "indexed": false,
          "internalType": "address",
          "name": "owner",
          "type": "address"
        },
        {
          "indexed": false,
          "internalType": "uint256",
          "name": "tokenId",
          "type": "uint256"
        },
        {
          "indexed": false,
          "internalType": "uint256",
          "name": "amount",
          "type": "uint256"
        }
      ],
      "name": "WithdrawAction",
      "type": "event"
    },
    {
      "inputs": [
        {
          "internalType": "uint256",
          "name": "",
          "type": "uint256"
        }
      ],
      "name": "_tokenDetails",
      "outputs": [
        {
          "internalType": "string",
          "name": "url",
          "type": "string"
        },
        {
          "internalType": "string",
          "name": "description",
          "type": "string"
        },
        {
          "internalType": "string",
          "name": "iconHash",
          "type": "string"
        },
        {
          "internalType": "string",
          "name": "screenshotHash",
          "type": "string"
        },
        {
          "internalType": "uint256",
          "name": "lastWithdrawDate",
          "type": "uint256"
        }
      ],
      "stateMutability": "view",
      "type": "function",
      "constant": true
    },
    {
      "inputs": [
        {
          "internalType": "address",
          "name": "",
          "type": "address"
        },
        {
          "internalType": "uint256",
          "name": "",
          "type": "uint256"
        }
      ],
      "name": "_userTokenIds",
      "outputs": [
        {
          "internalType": "uint256",
          "name": "",
          "type": "uint256"
        }
      ],
      "stateMutability": "view",
      "type": "function",
      "constant": true
    },
    {
      "inputs": [
        {
          "internalType": "address",
          "name": "to",
          "type": "address"
        },
        {
          "internalType": "uint256",
          "name": "tokenId",
          "type": "uint256"
        }
      ],
      "name": "approve",
      "outputs": [],
      "stateMutability": "nonpayable",
      "type": "function"
    },
    {
      "inputs": [
        {
          "internalType": "address",
          "name": "owner",
          "type": "address"
        }
      ],
      "name": "balanceOf",
      "outputs": [
        {
          "internalType": "uint256",
          "name": "",
          "type": "uint256"
        }
      ],
      "stateMutability": "view",
      "type": "function",
      "constant": true
    },
    {
      "inputs": [
        {
          "internalType": "uint256",
          "name": "tokenId",
          "type": "uint256"
        }
      ],
      "name": "getApproved",
      "outputs": [
        {
          "internalType": "address",
          "name": "",
          "type": "address"
        }
      ],
      "stateMutability": "view",
      "type": "function",
      "constant": true
    },
    {
      "inputs": [
        {
          "internalType": "address",
          "name": "owner",
          "type": "address"
        },
        {
          "internalType": "address",
          "name": "operator",
          "type": "address"
        }
      ],
      "name": "isApprovedForAll",
      "outputs": [
        {
          "internalType": "bool",
          "name": "",
          "type": "bool"
        }
      ],
      "stateMutability": "view",
      "type": "function",
      "constant": true
    },
    {
      "inputs": [],
      "name": "name",
      "outputs": [
        {
          "internalType": "string",
          "name": "",
          "type": "string"
        }
      ],
      "stateMutability": "view",
      "type": "function",
      "constant": true
    },
    {
      "inputs": [
        {
          "internalType": "uint256",
          "name": "tokenId",
          "type": "uint256"
        }
      ],
      "name": "ownerOf",
      "outputs": [
        {
          "internalType": "address",
          "name": "",
          "type": "address"
        }
      ],
      "stateMutability": "view",
      "type": "function",
      "constant": true
    },
    {
      "inputs": [
        {
          "internalType": "address",
          "name": "from",
          "type": "address"
        },
        {
          "internalType": "address",
          "name": "to",
          "type": "address"
        },
        {
          "internalType": "uint256",
          "name": "tokenId",
          "type": "uint256"
        }
      ],
      "name": "safeTransferFrom",
      "outputs": [],
      "stateMutability": "nonpayable",
      "type": "function"
    },
    {
      "inputs": [
        {
          "internalType": "address",
          "name": "from",
          "type": "address"
        },
        {
          "internalType": "address",
          "name": "to",
          "type": "address"
        },
        {
          "internalType": "uint256",
          "name": "tokenId",
          "type": "uint256"
        },
        {
          "internalType": "bytes",
          "name": "_data",
          "type": "bytes"
        }
      ],
      "name": "safeTransferFrom",
      "outputs": [],
      "stateMutability": "nonpayable",
      "type": "function"
    },
    {
      "inputs": [
        {
          "internalType": "address",
          "name": "operator",
          "type": "address"
        },
        {
          "internalType": "bool",
          "name": "approved",
          "type": "bool"
        }
      ],
      "name": "setApprovalForAll",
      "outputs": [],
      "stateMutability": "nonpayable",
      "type": "function"
    },
    {
      "inputs": [
        {
          "internalType": "bytes4",
          "name": "interfaceId",
          "type": "bytes4"
        }
      ],
      "name": "supportsInterface",
      "outputs": [
        {
          "internalType": "bool",
          "name": "",
          "type": "bool"
        }
      ],
      "stateMutability": "view",
      "type": "function",
      "constant": true
    },
    {
      "inputs": [],
      "name": "symbol",
      "outputs": [
        {
          "internalType": "string",
          "name": "",
          "type": "string"
        }
      ],
      "stateMutability": "view",
      "type": "function",
      "constant": true
    },
    {
      "inputs": [
        {
          "internalType": "uint256",
          "name": "tokenId",
          "type": "uint256"
        }
      ],
      "name": "tokenURI",
      "outputs": [
        {
          "internalType": "string",
          "name": "",
          "type": "string"
        }
      ],
      "stateMutability": "view",
      "type": "function",
      "constant": true
    },
    {
      "inputs": [
        {
          "internalType": "address",
          "name": "from",
          "type": "address"
        },
        {
          "internalType": "address",
          "name": "to",
          "type": "address"
        },
        {
          "internalType": "uint256",
          "name": "tokenId",
          "type": "uint256"
        }
      ],
      "name": "transferFrom",
      "outputs": [],
      "stateMutability": "nonpayable",
      "type": "function"
    },
    {
      "inputs": [
        {
          "internalType": "address",
          "name": "owner",
          "type": "address"
        },
        {
          "internalType": "string",
          "name": "url",
          "type": "string"
        }
      ],
      "name": "mintToken",
      "outputs": [
        {
          "internalType": "uint256",
          "name": "tokenId",
          "type": "uint256"
        }
      ],
      "stateMutability": "nonpayable",
      "type": "function"
    },
    {
      "inputs": [
        {
          "internalType": "address",
          "name": "owner",
          "type": "address"
        }
      ],
      "name": "getTokensDetails",
      "outputs": [
        {
          "components": [
            {
              "internalType": "string",
              "name": "url",
              "type": "string"
            },
            {
              "internalType": "string",
              "name": "description",
              "type": "string"
            },
            {
              "internalType": "string",
              "name": "iconHash",
              "type": "string"
            },
            {
              "internalType": "string",
              "name": "screenshotHash",
              "type": "string"
            },
            {
              "internalType": "uint256",
              "name": "lastWithdrawDate",
              "type": "uint256"
            }
          ],
          "internalType": "struct SpaceToken.TokenDetails[]",
          "name": "tokens",
          "type": "tuple[]"
        }
      ],
      "stateMutability": "view",
      "type": "function",
      "constant": true
    },
    {
      "inputs": [
        {
          "internalType": "uint256",
          "name": "tokenId",
          "type": "uint256"
        }
      ],
      "name": "getEarnedTokens",
      "outputs": [
        {
          "internalType": "uint256",
          "name": "amount",
          "type": "uint256"
        }
      ],
      "stateMutability": "view",
      "type": "function",
      "constant": true
    },
    {
      "inputs": [
        {
          "internalType": "uint256",
          "name": "amount",
          "type": "uint256"
        },
        {
          "internalType": "uint256",
          "name": "tokenId",
          "type": "uint256"
        }
      ],
      "name": "withdrawEarnedTokens",
      "outputs": [],
      "stateMutability": "payable",
      "type": "function",
      "payable": true
    }
  ],
  "bytecode": "0x60806040523480156200001157600080fd5b506040518060400160405280600a81526020017f5370616365546f6b656e000000000000000000000000000000000000000000008152506040518060400160405280600481526020017f5350544b00000000000000000000000000000000000000000000000000000000815250816000908051906020019062000096929190620000b8565b508060019080519060200190620000af929190620000b8565b505050620001cc565b828054620000c69062000197565b90600052602060002090601f016020900481019282620000ea576000855562000136565b82601f106200010557805160ff191683800117855562000136565b8280016001018555821562000136579182015b828111156200013557825182559160200191906001019062000118565b5b50905062000145919062000149565b5090565b5b80821115620001645760008160009055506001016200014a565b5090565b7f4e487b7100000000000000000000000000000000000000000000000000000000600052602260045260246000fd5b60006002820490506001821680620001b057607f821691505b602082108103620001c657620001c562000168565b5b50919050565b613a8080620001dc6000396000f3fe6080604052600436106101145760003560e01c806370a08231116100a0578063a22cb46511610064578063a22cb465146103f2578063b88d4fde1461041b578063bbd38fbe14610444578063c87b56dd14610481578063e985e9c5146104be57610114565b806370a08231146102f057806375c294421461032d57806385f7229a1461036a5780638a6ad132146103ab57806395d89b41146103c757610114565b806323b872dd116100e757806323b872dd146101e75780633d02d0c914610210578063419a70c11461024d57806342842e0e1461028a5780636352211e146102b357610114565b806301ffc9a71461011957806306fdde0314610156578063081812fc14610181578063095ea7b3146101be575b600080fd5b34801561012557600080fd5b50610140600480360381019061013b919061241a565b6104fb565b60405161014d9190612462565b60405180910390f35b34801561016257600080fd5b5061016b6105dd565b6040516101789190612516565b60405180910390f35b34801561018d57600080fd5b506101a860048036038101906101a3919061256e565b61066f565b6040516101b591906125dc565b60405180910390f35b3480156101ca57600080fd5b506101e560048036038101906101e09190612623565b6106f4565b005b3480156101f357600080fd5b5061020e60048036038101906102099190612663565b61080b565b005b34801561021c57600080fd5b50610237600480360381019061023291906127eb565b61086b565b6040516102449190612856565b60405180910390f35b34801561025957600080fd5b50610274600480360381019061026f9190612871565b6109ed565b6040516102819190612a44565b60405180910390f35b34801561029657600080fd5b506102b160048036038101906102ac9190612663565b610d4f565b005b3480156102bf57600080fd5b506102da60048036038101906102d5919061256e565b610d6f565b6040516102e791906125dc565b60405180910390f35b3480156102fc57600080fd5b5061031760048036038101906103129190612871565b610e20565b6040516103249190612856565b60405180910390f35b34801561033957600080fd5b50610354600480360381019061034f919061256e565b610ed7565b6040516103619190612856565b60405180910390f35b34801561037657600080fd5b50610391600480360381019061038c919061256e565b610f37565b6040516103a2959493929190612a66565b60405180910390f35b6103c560048036038101906103c09190612ad5565b61118d565b005b3480156103d357600080fd5b506103dc6112d6565b6040516103e99190612516565b60405180910390f35b3480156103fe57600080fd5b5061041960048036038101906104149190612b41565b611368565b005b34801561042757600080fd5b50610442600480360381019061043d9190612c22565b61137e565b005b34801561045057600080fd5b5061046b60048036038101906104669190612623565b6113e0565b6040516104789190612856565b60405180910390f35b34801561048d57600080fd5b506104a860048036038101906104a3919061256e565b611411565b6040516104b59190612516565b60405180910390f35b3480156104ca57600080fd5b506104e560048036038101906104e09190612ca5565b611562565b6040516104f29190612462565b60405180910390f35b60007f80ac58cd000000000000000000000000000000000000000000000000000000007bffffffffffffffffffffffffffffffffffffffffffffffffffffffff1916827bffffffffffffffffffffffffffffffffffffffffffffffffffffffff191614806105c657507f5b5e139f000000000000000000000000000000000000000000000000000000007bffffffffffffffffffffffffffffffffffffffffffffffffffffffff1916827bffffffffffffffffffffffffffffffffffffffffffffffffffffffff1916145b806105d657506105d5826115f6565b5b9050919050565b6060600080546105ec90612d14565b80601f016020809104026020016040519081016040528092919081815260200182805461061890612d14565b80156106655780601f1061063a57610100808354040283529160200191610665565b820191906000526020600020905b81548152906001019060200180831161064857829003601f168201915b5050505050905090565b600061067a82611660565b6106b9576040517f08c379a00000000000000000000000000000000000000000000000000000000081526004016106b090612db7565b60405180910390fd5b6004600083815260200190815260200160002060009054906101000a900473ffffffffffffffffffffffffffffffffffffffff169050919050565b60006106ff82610d6f565b90508073ffffffffffffffffffffffffffffffffffffffff168373ffffffffffffffffffffffffffffffffffffffff160361076f576040517f08c379a000000000000000000000000000000000000000000000000000000000815260040161076690612e49565b60405180910390fd5b8073ffffffffffffffffffffffffffffffffffffffff1661078e6116cc565b73ffffffffffffffffffffffffffffffffffffffff1614806107bd57506107bc816107b76116cc565b611562565b5b6107fc576040517f08c379a00000000000000000000000000000000000000000000000000000000081526004016107f390612edb565b60405180910390fd5b61080683836116d4565b505050565b61081c6108166116cc565b8261178d565b61085b576040517f08c379a000000000000000000000000000000000000000000000000000000000815260040161085290612f6d565b60405180910390fd5b61086683838361186b565b505050565b60006108776007611ad1565b90506108838382611adf565b61088d8183611cb8565b600860008473ffffffffffffffffffffffffffffffffffffffff1673ffffffffffffffffffffffffffffffffffffffff1681526020019081526020016000208190806001815401808255809150506001900390600052602060002001600090919091909150557f5c4839c508d69c511e8dfa410b4ff4fbde60f722b8f23fd6b9ba529a74a798ab8383604051610924929190612f8d565b60405180910390a16109346122dc565b828160000181905250428160800181815250508060096000848152602001908152602001600020600082015181600001908051906020019061097792919061230b565b50602082015181600101908051906020019061099492919061230b565b5060408201518160020190805190602001906109b192919061230b565b5060608201518160030190805190602001906109ce92919061230b565b50608082015181600401559050506109e66007611d2c565b5092915050565b60606000600860008473ffffffffffffffffffffffffffffffffffffffff1673ffffffffffffffffffffffffffffffffffffffff168152602001908152602001600020805480602002602001604051908101604052809291908181526020018280548015610a7a57602002820191906000526020600020905b815481526020019060010190808311610a66575b5050505050905060005b8151811015610d485760096000838381518110610aa457610aa3612fbd565b5b602002602001015181526020019081526020016000206040518060a0016040529081600082018054610ad590612d14565b80601f0160208091040260200160405190810160405280929190818152602001828054610b0190612d14565b8015610b4e5780601f10610b2357610100808354040283529160200191610b4e565b820191906000526020600020905b815481529060010190602001808311610b3157829003601f168201915b50505050508152602001600182018054610b6790612d14565b80601f0160208091040260200160405190810160405280929190818152602001828054610b9390612d14565b8015610be05780601f10610bb557610100808354040283529160200191610be0565b820191906000526020600020905b815481529060010190602001808311610bc357829003601f168201915b50505050508152602001600282018054610bf990612d14565b80601f0160208091040260200160405190810160405280929190818152602001828054610c2590612d14565b8015610c725780601f10610c4757610100808354040283529160200191610c72565b820191906000526020600020905b815481529060010190602001808311610c5557829003601f168201915b50505050508152602001600382018054610c8b90612d14565b80601f0160208091040260200160405190810160405280929190818152602001828054610cb790612d14565b8015610d045780601f10610cd957610100808354040283529160200191610d04565b820191906000526020600020905b815481529060010190602001808311610ce757829003601f168201915b50505050508152602001600482015481525050838281518110610d2a57610d29612fbd565b5b60200260200101819052508080610d409061301b565b915050610a84565b5050919050565b610d6a8383836040518060200160405280600081525061137e565b505050565b6000806002600084815260200190815260200160002060009054906101000a900473ffffffffffffffffffffffffffffffffffffffff169050600073ffffffffffffffffffffffffffffffffffffffff168173ffffffffffffffffffffffffffffffffffffffff1603610e17576040517f08c379a0000000000000000000000000000000000000000000000000000000008152600401610e0e906130d5565b60405180910390fd5b80915050919050565b60008073ffffffffffffffffffffffffffffffffffffffff168273ffffffffffffffffffffffffffffffffffffffff1603610e90576040517f08c379a0000000000000000000000000000000000000000000000000000000008152600401610e8790613167565b60405180910390fd5b600360008373ffffffffffffffffffffffffffffffffffffffff1673ffffffffffffffffffffffffffffffffffffffff168152602001908152602001600020549050919050565b6000806009600084815260200190815260200160002060040154905060006018603c8342610f059190613187565b610f0f91906131ea565b610f1991906131ea565b9050662386f26fc1000081610f2e919061321b565b92505050919050565b6009602052806000526040600020600091509050806000018054610f5a90612d14565b80601f0160208091040260200160405190810160405280929190818152602001828054610f8690612d14565b8015610fd35780601f10610fa857610100808354040283529160200191610fd3565b820191906000526020600020905b815481529060010190602001808311610fb657829003601f168201915b505050505090806001018054610fe890612d14565b80601f016020809104026020016040519081016040528092919081815260200182805461101490612d14565b80156110615780601f1061103657610100808354040283529160200191611061565b820191906000526020600020905b81548152906001019060200180831161104457829003601f168201915b50505050509080600201805461107690612d14565b80601f01602080910402602001604051908101604052809291908181526020018280546110a290612d14565b80156110ef5780601f106110c4576101008083540402835291602001916110ef565b820191906000526020600020905b8154815290600101906020018083116110d257829003601f168201915b50505050509080600301805461110490612d14565b80601f016020809104026020016040519081016040528092919081815260200182805461113090612d14565b801561117d5780601f106111525761010080835404028352916020019161117d565b820191906000526020600020905b81548152906001019060200180831161116057829003601f168201915b5050505050908060040154905085565b8061119781610d6f565b73ffffffffffffffffffffffffffffffffffffffff166111b56116cc565b73ffffffffffffffffffffffffffffffffffffffff16146111d557600080fd5b60006111e083610ed7565b905080841115611225576040517f08c379a000000000000000000000000000000000000000000000000000000000815260040161121c906132e7565b60405180910390fd5b4260096000858152602001908152602001600020600401819055506112486116cc565b73ffffffffffffffffffffffffffffffffffffffff166108fc859081150290604051600060405180830381858888f1935050505015801561128d573d6000803e3d6000fd5b507fbd8c2c2e0920dea49c27aa5e4dea7810931c62e10c1393174c4bb78e562f6adc6112b76116cc565b84866040516112c893929190613307565b60405180910390a150505050565b6060600180546112e590612d14565b80601f016020809104026020016040519081016040528092919081815260200182805461131190612d14565b801561135e5780601f106113335761010080835404028352916020019161135e565b820191906000526020600020905b81548152906001019060200180831161134157829003601f168201915b5050505050905090565b61137a6113736116cc565b8383611d42565b5050565b61138f6113896116cc565b8361178d565b6113ce576040517f08c379a00000000000000000000000000000000000000000000000000000000081526004016113c590612f6d565b60405180910390fd5b6113da84848484611eae565b50505050565b600860205281600052604060002081815481106113fc57600080fd5b90600052602060002001600091509150505481565b606061141c82611660565b61145b576040517f08c379a0000000000000000000000000000000000000000000000000000000008152600401611452906133b0565b60405180910390fd5b600060066000848152602001908152602001600020805461147b90612d14565b80601f01602080910402602001604051908101604052809291908181526020018280546114a790612d14565b80156114f45780601f106114c9576101008083540402835291602001916114f4565b820191906000526020600020905b8154815290600101906020018083116114d757829003601f168201915b505050505090506000611505611f0a565b9050600081510361151a57819250505061155d565b60008251111561154f57808260405160200161153792919061340c565b6040516020818303038152906040529250505061155d565b61155884611f21565b925050505b919050565b6000600560008473ffffffffffffffffffffffffffffffffffffffff1673ffffffffffffffffffffffffffffffffffffffff16815260200190815260200160002060008373ffffffffffffffffffffffffffffffffffffffff1673ffffffffffffffffffffffffffffffffffffffff16815260200190815260200160002060009054906101000a900460ff16905092915050565b60007f01ffc9a7000000000000000000000000000000000000000000000000000000007bffffffffffffffffffffffffffffffffffffffffffffffffffffffff1916827bffffffffffffffffffffffffffffffffffffffffffffffffffffffff1916149050919050565b60008073ffffffffffffffffffffffffffffffffffffffff166002600084815260200190815260200160002060009054906101000a900473ffffffffffffffffffffffffffffffffffffffff1673ffffffffffffffffffffffffffffffffffffffff1614159050919050565b600033905090565b816004600083815260200190815260200160002060006101000a81548173ffffffffffffffffffffffffffffffffffffffff021916908373ffffffffffffffffffffffffffffffffffffffff160217905550808273ffffffffffffffffffffffffffffffffffffffff1661174783610d6f565b73ffffffffffffffffffffffffffffffffffffffff167f8c5be1e5ebec7d5bd14f71427d1e84f3dd0314c0f7b2291e5b200ac8c7c3b92560405160405180910390a45050565b600061179882611660565b6117d7576040517f08c379a00000000000000000000000000000000000000000000000000000000081526004016117ce906134a2565b60405180910390fd5b60006117e283610d6f565b90508073ffffffffffffffffffffffffffffffffffffffff168473ffffffffffffffffffffffffffffffffffffffff16148061182457506118238185611562565b5b8061186257508373ffffffffffffffffffffffffffffffffffffffff1661184a8461066f565b73ffffffffffffffffffffffffffffffffffffffff16145b91505092915050565b8273ffffffffffffffffffffffffffffffffffffffff1661188b82610d6f565b73ffffffffffffffffffffffffffffffffffffffff16146118e1576040517f08c379a00000000000000000000000000000000000000000000000000000000081526004016118d890613534565b60405180910390fd5b600073ffffffffffffffffffffffffffffffffffffffff168273ffffffffffffffffffffffffffffffffffffffff1603611950576040517f08c379a0000000000000000000000000000000000000000000000000000000008152600401611947906135c6565b60405180910390fd5b61195b838383611fc8565b6119666000826116d4565b6001600360008573ffffffffffffffffffffffffffffffffffffffff1673ffffffffffffffffffffffffffffffffffffffff16815260200190815260200160002060008282546119b69190613187565b925050819055506001600360008473ffffffffffffffffffffffffffffffffffffffff1673ffffffffffffffffffffffffffffffffffffffff1681526020019081526020016000206000828254611a0d91906135e6565b92505081905550816002600083815260200190815260200160002060006101000a81548173ffffffffffffffffffffffffffffffffffffffff021916908373ffffffffffffffffffffffffffffffffffffffff160217905550808273ffffffffffffffffffffffffffffffffffffffff168473ffffffffffffffffffffffffffffffffffffffff167fddf252ad1be2c89b69c2b068fc378daa952ba7f163c4a11628f55a4df523b3ef60405160405180910390a4611acc838383611fcd565b505050565b600081600001549050919050565b600073ffffffffffffffffffffffffffffffffffffffff168273ffffffffffffffffffffffffffffffffffffffff1603611b4e576040517f08c379a0000000000000000000000000000000000000000000000000000000008152600401611b4590613688565b60405180910390fd5b611b5781611660565b15611b97576040517f08c379a0000000000000000000000000000000000000000000000000000000008152600401611b8e906136f4565b60405180910390fd5b611ba360008383611fc8565b6001600360008473ffffffffffffffffffffffffffffffffffffffff1673ffffffffffffffffffffffffffffffffffffffff1681526020019081526020016000206000828254611bf391906135e6565b92505081905550816002600083815260200190815260200160002060006101000a81548173ffffffffffffffffffffffffffffffffffffffff021916908373ffffffffffffffffffffffffffffffffffffffff160217905550808273ffffffffffffffffffffffffffffffffffffffff16600073ffffffffffffffffffffffffffffffffffffffff167fddf252ad1be2c89b69c2b068fc378daa952ba7f163c4a11628f55a4df523b3ef60405160405180910390a4611cb460008383611fcd565b5050565b611cc182611660565b611d00576040517f08c379a0000000000000000000000000000000000000000000000000000000008152600401611cf790613786565b60405180910390fd5b80600660008481526020019081526020016000209080519060200190611d2792919061230b565b505050565b6001816000016000828254019250508190555050565b8173ffffffffffffffffffffffffffffffffffffffff168373ffffffffffffffffffffffffffffffffffffffff1603611db0576040517f08c379a0000000000000000000000000000000000000000000000000000000008152600401611da7906137f2565b60405180910390fd5b80600560008573ffffffffffffffffffffffffffffffffffffffff1673ffffffffffffffffffffffffffffffffffffffff16815260200190815260200160002060008473ffffffffffffffffffffffffffffffffffffffff1673ffffffffffffffffffffffffffffffffffffffff16815260200190815260200160002060006101000a81548160ff0219169083151502179055508173ffffffffffffffffffffffffffffffffffffffff168373ffffffffffffffffffffffffffffffffffffffff167f17307eab39ab6107e8899845ad3d59bd9653f200f220920489ca2b5937696c3183604051611ea19190612462565b60405180910390a3505050565b611eb984848461186b565b611ec584848484611fd2565b611f04576040517f08c379a0000000000000000000000000000000000000000000000000000000008152600401611efb90613884565b60405180910390fd5b50505050565b606060405180602001604052806000815250905090565b6060611f2c82611660565b611f6b576040517f08c379a0000000000000000000000000000000000000000000000000000000008152600401611f6290613916565b60405180910390fd5b6000611f75611f0a565b90506000815111611f955760405180602001604052806000815250611fc0565b80611f9f84612159565b604051602001611fb092919061340c565b6040516020818303038152906040525b915050919050565b505050565b505050565b6000611ff38473ffffffffffffffffffffffffffffffffffffffff166122b9565b1561214c578373ffffffffffffffffffffffffffffffffffffffff1663150b7a0261201c6116cc565b8786866040518563ffffffff1660e01b815260040161203e949392919061398b565b6020604051808303816000875af192505050801561207a57506040513d601f19601f8201168201806040525081019061207791906139ec565b60015b6120fc573d80600081146120aa576040519150601f19603f3d011682016040523d82523d6000602084013e6120af565b606091505b5060008151036120f4576040517f08c379a00000000000000000000000000000000000000000000000000000000081526004016120eb90613884565b60405180910390fd5b805181602001fd5b63150b7a0260e01b7bffffffffffffffffffffffffffffffffffffffffffffffffffffffff1916817bffffffffffffffffffffffffffffffffffffffffffffffffffffffff191614915050612151565b600190505b949350505050565b6060600082036121a0576040518060400160405280600181526020017f300000000000000000000000000000000000000000000000000000000000000081525090506122b4565b600082905060005b600082146121d25780806121bb9061301b565b915050600a826121cb91906131ea565b91506121a8565b60008167ffffffffffffffff8111156121ee576121ed6126c0565b5b6040519080825280601f01601f1916602001820160405280156122205781602001600182028036833780820191505090505b5090505b600085146122ad576001826122399190613187565b9150600a856122489190613a19565b603061225491906135e6565b60f81b81838151811061226a57612269612fbd565b5b60200101907effffffffffffffffffffffffffffffffffffffffffffffffffffffffffffff1916908160001a905350600a856122a691906131ea565b9450612224565b8093505050505b919050565b6000808273ffffffffffffffffffffffffffffffffffffffff163b119050919050565b6040518060a0016040528060608152602001606081526020016060815260200160608152602001600081525090565b82805461231790612d14565b90600052602060002090601f0160209004810192826123395760008555612380565b82601f1061235257805160ff1916838001178555612380565b82800160010185558215612380579182015b8281111561237f578251825591602001919060010190612364565b5b50905061238d9190612391565b5090565b5b808211156123aa576000816000905550600101612392565b5090565b6000604051905090565b600080fd5b600080fd5b60007fffffffff0000000000000000000000000000000000000000000000000000000082169050919050565b6123f7816123c2565b811461240257600080fd5b50565b600081359050612414816123ee565b92915050565b6000602082840312156124305761242f6123b8565b5b600061243e84828501612405565b91505092915050565b60008115159050919050565b61245c81612447565b82525050565b60006020820190506124776000830184612453565b92915050565b600081519050919050565b600082825260208201905092915050565b60005b838110156124b757808201518184015260208101905061249c565b838111156124c6576000848401525b50505050565b6000601f19601f8301169050919050565b60006124e88261247d565b6124f28185612488565b9350612502818560208601612499565b61250b816124cc565b840191505092915050565b6000602082019050818103600083015261253081846124dd565b905092915050565b6000819050919050565b61254b81612538565b811461255657600080fd5b50565b60008135905061256881612542565b92915050565b600060208284031215612584576125836123b8565b5b600061259284828501612559565b91505092915050565b600073ffffffffffffffffffffffffffffffffffffffff82169050919050565b60006125c68261259b565b9050919050565b6125d6816125bb565b82525050565b60006020820190506125f160008301846125cd565b92915050565b612600816125bb565b811461260b57600080fd5b50565b60008135905061261d816125f7565b92915050565b6000806040838503121561263a576126396123b8565b5b60006126488582860161260e565b925050602061265985828601612559565b9150509250929050565b60008060006060848603121561267c5761267b6123b8565b5b600061268a8682870161260e565b935050602061269b8682870161260e565b92505060406126ac86828701612559565b9150509250925092565b600080fd5b600080fd5b7f4e487b7100000000000000000000000000000000000000000000000000000000600052604160045260246000fd5b6126f8826124cc565b810181811067ffffffffffffffff82111715612717576127166126c0565b5b80604052505050565b600061272a6123ae565b905061273682826126ef565b919050565b600067ffffffffffffffff821115612756576127556126c0565b5b61275f826124cc565b9050602081019050919050565b82818337600083830152505050565b600061278e6127898461273b565b612720565b9050828152602081018484840111156127aa576127a96126bb565b5b6127b584828561276c565b509392505050565b600082601f8301126127d2576127d16126b6565b5b81356127e284826020860161277b565b91505092915050565b60008060408385031215612802576128016123b8565b5b60006128108582860161260e565b925050602083013567ffffffffffffffff811115612831576128306123bd565b5b61283d858286016127bd565b9150509250929050565b61285081612538565b82525050565b600060208201905061286b6000830184612847565b92915050565b600060208284031215612887576128866123b8565b5b60006128958482850161260e565b91505092915050565b600081519050919050565b600082825260208201905092915050565b6000819050602082019050919050565b600082825260208201905092915050565b60006128e68261247d565b6128f081856128ca565b9350612900818560208601612499565b612909816124cc565b840191505092915050565b61291d81612538565b82525050565b600060a083016000830151848203600086015261294082826128db565b9150506020830151848203602086015261295a82826128db565b9150506040830151848203604086015261297482826128db565b9150506060830151848203606086015261298e82826128db565b91505060808301516129a36080860182612914565b508091505092915050565b60006129ba8383612923565b905092915050565b6000602082019050919050565b60006129da8261289e565b6129e481856128a9565b9350836020820285016129f6856128ba565b8060005b85811015612a325784840389528151612a1385826129ae565b9450612a1e836129c2565b925060208a019950506001810190506129fa565b50829750879550505050505092915050565b60006020820190508181036000830152612a5e81846129cf565b905092915050565b600060a0820190508181036000830152612a8081886124dd565b90508181036020830152612a9481876124dd565b90508181036040830152612aa881866124dd565b90508181036060830152612abc81856124dd565b9050612acb6080830184612847565b9695505050505050565b60008060408385031215612aec57612aeb6123b8565b5b6000612afa85828601612559565b9250506020612b0b85828601612559565b9150509250929050565b612b1e81612447565b8114612b2957600080fd5b50565b600081359050612b3b81612b15565b92915050565b60008060408385031215612b5857612b576123b8565b5b6000612b668582860161260e565b9250506020612b7785828601612b2c565b9150509250929050565b600067ffffffffffffffff821115612b9c57612b9b6126c0565b5b612ba5826124cc565b9050602081019050919050565b6000612bc5612bc084612b81565b612720565b905082815260208101848484011115612be157612be06126bb565b5b612bec84828561276c565b509392505050565b600082601f830112612c0957612c086126b6565b5b8135612c19848260208601612bb2565b91505092915050565b60008060008060808587031215612c3c57612c3b6123b8565b5b6000612c4a8782880161260e565b9450506020612c5b8782880161260e565b9350506040612c6c87828801612559565b925050606085013567ffffffffffffffff811115612c8d57612c8c6123bd565b5b612c9987828801612bf4565b91505092959194509250565b60008060408385031215612cbc57612cbb6123b8565b5b6000612cca8582860161260e565b9250506020612cdb8582860161260e565b9150509250929050565b7f4e487b7100000000000000000000000000000000000000000000000000000000600052602260045260246000fd5b60006002820490506001821680612d2c57607f821691505b602082108103612d3f57612d3e612ce5565b5b50919050565b7f4552433732313a20617070726f76656420717565727920666f72206e6f6e657860008201527f697374656e7420746f6b656e0000000000000000000000000000000000000000602082015250565b6000612da1602c83612488565b9150612dac82612d45565b604082019050919050565b60006020820190508181036000830152612dd081612d94565b9050919050565b7f4552433732313a20617070726f76616c20746f2063757272656e74206f776e6560008201527f7200000000000000000000000000000000000000000000000000000000000000602082015250565b6000612e33602183612488565b9150612e3e82612dd7565b604082019050919050565b60006020820190508181036000830152612e6281612e26565b9050919050565b7f4552433732313a20617070726f76652063616c6c6572206973206e6f74206f7760008201527f6e6572206e6f7220617070726f76656420666f7220616c6c0000000000000000602082015250565b6000612ec5603883612488565b9150612ed082612e69565b604082019050919050565b60006020820190508181036000830152612ef481612eb8565b9050919050565b7f4552433732313a207472616e736665722063616c6c6572206973206e6f74206f60008201527f776e6572206e6f7220617070726f766564000000000000000000000000000000602082015250565b6000612f57603183612488565b9150612f6282612efb565b604082019050919050565b60006020820190508181036000830152612f8681612f4a565b9050919050565b6000604082019050612fa260008301856125cd565b8181036020830152612fb481846124dd565b90509392505050565b7f4e487b7100000000000000000000000000000000000000000000000000000000600052603260045260246000fd5b7f4e487b7100000000000000000000000000000000000000000000000000000000600052601160045260246000fd5b600061302682612538565b91507fffffffffffffffffffffffffffffffffffffffffffffffffffffffffffffffff820361305857613057612fec565b5b600182019050919050565b7f4552433732313a206f776e657220717565727920666f72206e6f6e657869737460008201527f656e7420746f6b656e0000000000000000000000000000000000000000000000602082015250565b60006130bf602983612488565b91506130ca82613063565b604082019050919050565b600060208201905081810360008301526130ee816130b2565b9050919050565b7f4552433732313a2062616c616e636520717565727920666f7220746865207a6560008201527f726f206164647265737300000000000000000000000000000000000000000000602082015250565b6000613151602a83612488565b915061315c826130f5565b604082019050919050565b6000602082019050818103600083015261318081613144565b9050919050565b600061319282612538565b915061319d83612538565b9250828210156131b0576131af612fec565b5b828203905092915050565b7f4e487b7100000000000000000000000000000000000000000000000000000000600052601260045260246000fd5b60006131f582612538565b915061320083612538565b9250826132105761320f6131bb565b5b828204905092915050565b600061322682612538565b915061323183612538565b9250817fffffffffffffffffffffffffffffffffffffffffffffffffffffffffffffffff048311821515161561326a57613269612fec565b5b828202905092915050565b7f576974686472617720616d6f756e742065786365656473206561726e6564207460008201527f6f6b656e7320636f756e74000000000000000000000000000000000000000000602082015250565b60006132d1602b83612488565b91506132dc82613275565b604082019050919050565b60006020820190508181036000830152613300816132c4565b9050919050565b600060608201905061331c60008301866125cd565b6133296020830185612847565b6133366040830184612847565b949350505050565b7f45524337323155524953746f726167653a2055524920717565727920666f722060008201527f6e6f6e6578697374656e7420746f6b656e000000000000000000000000000000602082015250565b600061339a603183612488565b91506133a58261333e565b604082019050919050565b600060208201905081810360008301526133c98161338d565b9050919050565b600081905092915050565b60006133e68261247d565b6133f081856133d0565b9350613400818560208601612499565b80840191505092915050565b600061341882856133db565b915061342482846133db565b91508190509392505050565b7f4552433732313a206f70657261746f7220717565727920666f72206e6f6e657860008201527f697374656e7420746f6b656e0000000000000000000000000000000000000000602082015250565b600061348c602c83612488565b915061349782613430565b604082019050919050565b600060208201905081810360008301526134bb8161347f565b9050919050565b7f4552433732313a207472616e736665722066726f6d20696e636f72726563742060008201527f6f776e6572000000000000000000000000000000000000000000000000000000602082015250565b600061351e602583612488565b9150613529826134c2565b604082019050919050565b6000602082019050818103600083015261354d81613511565b9050919050565b7f4552433732313a207472616e7366657220746f20746865207a65726f2061646460008201527f7265737300000000000000000000000000000000000000000000000000000000602082015250565b60006135b0602483612488565b91506135bb82613554565b604082019050919050565b600060208201905081810360008301526135df816135a3565b9050919050565b60006135f182612538565b91506135fc83612538565b9250827fffffffffffffffffffffffffffffffffffffffffffffffffffffffffffffffff0382111561363157613630612fec565b5b828201905092915050565b7f4552433732313a206d696e7420746f20746865207a65726f2061646472657373600082015250565b6000613672602083612488565b915061367d8261363c565b602082019050919050565b600060208201905081810360008301526136a181613665565b9050919050565b7f4552433732313a20746f6b656e20616c7265616479206d696e74656400000000600082015250565b60006136de601c83612488565b91506136e9826136a8565b602082019050919050565b6000602082019050818103600083015261370d816136d1565b9050919050565b7f45524337323155524953746f726167653a2055524920736574206f66206e6f6e60008201527f6578697374656e7420746f6b656e000000000000000000000000000000000000602082015250565b6000613770602e83612488565b915061377b82613714565b604082019050919050565b6000602082019050818103600083015261379f81613763565b9050919050565b7f4552433732313a20617070726f766520746f2063616c6c657200000000000000600082015250565b60006137dc601983612488565b91506137e7826137a6565b602082019050919050565b6000602082019050818103600083015261380b816137cf565b9050919050565b7f4552433732313a207472616e7366657220746f206e6f6e20455243373231526560008201527f63656976657220696d706c656d656e7465720000000000000000000000000000602082015250565b600061386e603283612488565b915061387982613812565b604082019050919050565b6000602082019050818103600083015261389d81613861565b9050919050565b7f4552433732314d657461646174613a2055524920717565727920666f72206e6f60008201527f6e6578697374656e7420746f6b656e0000000000000000000000000000000000602082015250565b6000613900602f83612488565b915061390b826138a4565b604082019050919050565b6000602082019050818103600083015261392f816138f3565b9050919050565b600081519050919050565b600082825260208201905092915050565b600061395d82613936565b6139678185613941565b9350613977818560208601612499565b613980816124cc565b840191505092915050565b60006080820190506139a060008301876125cd565b6139ad60208301866125cd565b6139ba6040830185612847565b81810360608301526139cc8184613952565b905095945050505050565b6000815190506139e6816123ee565b92915050565b600060208284031215613a0257613a016123b8565b5b6000613a10848285016139d7565b91505092915050565b6000613a2482612538565b9150613a2f83612538565b925082613a3f57613a3e6131bb565b5b82820690509291505056fea2646970667358221220defb17cfdbf8d8e813a264864493d677f681c18845a4d3c0cfb498bacdf1114964736f6c634300080e0033",
  "immutableReferences": {},
  "source": "// SPDX-License-Identifier: MIT\npragma solidity 0.8.14;\n\nimport \"@openzeppelin/contracts/token/ERC721/extensions/ERC721URIStorage.sol\";\nimport \"@openzeppelin/contracts/utils/Counters.sol\";\n\ncontract SpaceToken is ERC721URIStorage {\n    using Counters for Counters.Counter;\n    Counters.Counter private _tokenIds;\n\n    constructor() ERC721(\"SpaceToken\", \"SPTK\") {}\n\n    struct TokenDetails {\n        string url;\n        string description;\n        string iconHash;\n        string screenshotHash;\n        uint256 lastWithdrawDate;\n    }\n\n    event MintToken(address owner, string url);\n    event WithdrawAction(address owner, uint256 tokenId, uint256 amount);\n\n    modifier onlyTokenOwner(uint256 tokenId) {\n        require(_msgSender() == ownerOf(tokenId));\n        _;\n    }\n\n    // Map from tokenId to tokenData\n    mapping(address => uint256[]) public _userTokenIds;\n\n    // from tokenId to it's details\n    mapping(uint256 => TokenDetails) public _tokenDetails;\n\n    /**\n     * @param owner Token minter address\n     * @param url String representing the url of website\n     * @return tokenId id of created NFT\n     */\n    function mintToken(address owner, string memory url)\n        public\n        returns (uint256 tokenId)\n    {\n        tokenId = _tokenIds.current();\n        _mint(owner, tokenId);\n        _setTokenURI(tokenId, url);\n        _userTokenIds[owner].push(tokenId);\n\n        emit MintToken(owner, url);\n\n        // Prepare token details for save\n        TokenDetails memory tokenDetails;\n        tokenDetails.url = url;\n        tokenDetails.lastWithdrawDate = block.timestamp;\n\n        // Push tokendatails to map\n        _tokenDetails[tokenId] = tokenDetails;\n\n        _tokenIds.increment();\n        return tokenId;\n    }\n\n    /**\n     * @param owner An address of a user of which we want to get his tokens\n     * @return tokens List of Tokens with all details about each\n     */\n    function getTokensDetails(address owner)\n        public\n        view\n        returns (TokenDetails[] memory tokens)\n    {\n        // Get all user tokenIds\n        uint256[] memory userTokenIds = _userTokenIds[owner];\n\n        // Loop through all tokenIds to get their details\n        for (uint256 i = 0; i < userTokenIds.length; i++) {\n            tokens[i] = _tokenDetails[userTokenIds[i]];\n        }\n\n        return tokens;\n    }\n\n    /**\n     * @return amount ,in wei\n     */\n    function getEarnedTokens(uint256 tokenId)\n        public\n        view\n        returns (uint256 amount)\n    {\n        uint256 lastWithdrawDate = _tokenDetails[tokenId].lastWithdrawDate;\n\n        // amonut = timepassed in seconds / 60 (to minutes) / 24 (to days)\n        uint256 daysPassed = (block.timestamp - lastWithdrawDate) / 60 / 24;\n\n        amount = daysPassed * 10**16;\n    }\n\n    // Claim earned ETH\n    function withdrawEarnedTokens(uint256 amount, uint256 tokenId)\n        external\n        payable\n        virtual\n        onlyTokenOwner(tokenId)\n    {\n        // Get amount of wei to send\n        uint256 earnedTokens = getEarnedTokens(tokenId);\n\n        require(\n            amount <= earnedTokens,\n            \"Withdraw amount exceeds earned tokens count\"\n        );\n\n        // Set wihtdraw date as NOW timestamp\n        _tokenDetails[tokenId].lastWithdrawDate = block.timestamp;\n\n        // Send earned tokens\n        payable(_msgSender()).transfer(amount);\n\n        emit WithdrawAction(_msgSender(), tokenId, amount);\n    }\n}\n",
  "sourcePath": "/mnt/data/Code/projects/Solidity/nft-erc721/contracts/SpaceToken.sol",
  "compiler": {
    "name": "solc",
    "version": "0.8.14+commit.80d49f37.Emscripten.clang"
  },
  "schemaVersion": "3.4.7",
  "updatedAt": "2022-06-17T20:37:09.796Z",
  "networkType": "ethereum",
  "devdoc": {
    "kind": "dev",
    "methods": {
      "approve(address,uint256)": {
        "details": "See {IERC721-approve}."
      },
      "balanceOf(address)": {
        "details": "See {IERC721-balanceOf}."
      },
      "getApproved(uint256)": {
        "details": "See {IERC721-getApproved}."
      },
      "getEarnedTokens(uint256)": {
        "returns": {
          "amount": ",in wei"
        }
      },
      "getTokensDetails(address)": {
        "params": {
          "owner": "An address of a user of which we want to get his tokens"
        },
        "returns": {
          "tokens": "List of Tokens with all details about each"
        }
      },
      "isApprovedForAll(address,address)": {
        "details": "See {IERC721-isApprovedForAll}."
      },
      "mintToken(address,string)": {
        "params": {
          "owner": "Token minter address",
          "url": "String representing the url of website"
        },
        "returns": {
          "tokenId": "id of created NFT"
        }
      },
      "name()": {
        "details": "See {IERC721Metadata-name}."
      },
      "ownerOf(uint256)": {
        "details": "See {IERC721-ownerOf}."
      },
      "safeTransferFrom(address,address,uint256)": {
        "details": "See {IERC721-safeTransferFrom}."
      },
      "safeTransferFrom(address,address,uint256,bytes)": {
        "details": "See {IERC721-safeTransferFrom}."
      },
      "setApprovalForAll(address,bool)": {
        "details": "See {IERC721-setApprovalForAll}."
      },
      "supportsInterface(bytes4)": {
        "details": "See {IERC165-supportsInterface}."
      },
      "symbol()": {
        "details": "See {IERC721Metadata-symbol}."
      },
      "tokenURI(uint256)": {
        "details": "See {IERC721Metadata-tokenURI}."
      },
      "transferFrom(address,address,uint256)": {
        "details": "See {IERC721-transferFrom}."
      }
    },
    "version": 1
  },
  "userdoc": {
    "kind": "user",
    "methods": {},
    "version": 1
  }
}